S00C00004D61696E2E7372656393
S113000045C0000061C000005FC000005DC000008A
S11300105BC0000059C0000057C0000055C000007C
S113002053C0000051C0000059C500004DC000007D
S11300304BC0000049C0000047C0000045C000009C
S113004043C0000041C000003FC000003DC00000AC
S11300503BC0000039C0000037C0000035C00000BC
S113006033C0000031C000002FC000002DC00000CC
S11300702BC0000029C0000027C0000025C00000DC
S113008023C0000021C000001FC0000011241FBEB7
S1130090CFEFD0E1DEBFCDBF13E0A0E0B1E0ECE6EE
S11300A0F5E100E00BBF02C007900D92A232B10748
S11300B0D9F727E0A2E2B3E001C01D92A234B2074F
S11300C0E1F703D00C94B40A9BCF9FD180E090E079
S11300D008956F927F928F929F92AF92BF92CF9228
S11300E0DF92EF92FF920F931F93CF93DF93CDB7DD
S11300F0DEB764970FB6F894DEBF0FBECDBF209174
S11301000B0130910C0188E2C82E83E0D82E9CE3C9
S1130110E92E93E0F92E86014FE1842E912C5FE3C2
S1130120A52EB12C6AEE662E62E0762EF80180814F
S11301309181A901481B590BCA018C3F5FEF9507B8
S11301400CF440C005970CF03DC0809109019091DA
S11301500A0142815381841B950B8C3FEFEF9E076C
S11301608CF105977CF580910801815080930801FA
S1130170882309F4BCC090920C0180920B01B092C8
S11301800A01A0920901809123038F938091220395
S11301908F937F926F9241E050E04C0F5D1F5F930D
S11301A04F93F7D6AE014F5F5F4F60E081E049D3D4
S11301B020910B0130910C010F900F900F900F9034
S11301C00F900F900C5F1F4FE016F10609F0AECFB1
S11301D08091040190910501281B390B2A3F5FEFA0
S11301E035079CF02730310584F480910901909102
S11301F00A012091060130910701821B930B8A3F6B
S1130200EFEF9E0714F00797ACF064960FB6F894DE
S1130210DEBF0FBECDBFDF91CF911F910F91FF9035
S1130220EF90DF90CF90BF90AF909F908F907F9092
S11302306F900895809122039091230301969093E7
S1130240230380932203BBD1809123038F93809156
S113025022038F938AEE92E09F938F938E010F5F18
S11302601F4F1F930F9395D6A80160E081E0E9D258
S113027082D68F7390780F900F900F900F900F90FD
S11302800F9097FD2FC0909305018093040173D6BE
S11302908F77907897FD51C0909307018093060162
S11302A012C0F6019183808366D68F77907897FD8C
S11302B014C0F60193838283F4E0CF0ED11CEC14B6
S11302C0FD0409F4A2CF57D68F73907897FFE9CF36
S11302D00197806C9F6F0196E4CF019780689F6FB0
S11302E00196E7CF0197806C9F6F0196CCCF12D215
S11302F044EF52E060E080E0A4D24FEF52E061E0CE
S113030080E09FD2809123038F93809122038F9367
S113031081EF92E09F938F938E010F5F1F4F1F9386
S11303200F9337D6A80161E08CE08BD20F900F9029
S11303300F900F900F900F90FFCF019780689F6FE1
S11303400196AACF0F931F93CF93DF93CDB7DEB758
S113035064970FB6F894DEBF0FBECDBFDBD1CCD20D
S11303604DE053E060E080E06CD2809123038F93F2
S1130370809122038F938AEE92E09F938F938E0154
S11303800F5F1F4F1F930F9304D6A80160E081E015
S113039058D22FEF83ED90E3215080409040E1F755
S11303A000C0000008E213E00F900F900F900F9030
S11303B00F900F90E0D58F73907897FD21C0F801CE
S11303C091838083D8D58F77907897FD14C0F801F6
S11303D0938382830C5F1F4FF3E00C331F0751F7A5
S11303E064960FB6F894DEBF0FBECDBFDF91CF91F8
S11303F01F910F910895019780689F6F0196E7CF31
S11304000197806C9F6F0196DACFCF93DF93CDB7BE
S1130410DEB764970FB6F894DEBF0FBECDBF38D3F6
S113042091DFAE014F5F5F4F6A0130E4A32EB12C20
S11304304FE7842E912C5AEEE52E52E0F52E83E000
S1130440AED08C01129502950F7001271F70012701
S113045084E0A5D0969587959695879596958795EA
S113046098012F51310937FD8FC02B3031050CF025
S113047069C020910B0130910C01A501481B590B57
S113048057FD70C04B3051050CF473C0F401E81BE8
S1130490F90BE034F10508F471C041E050E08091BB
S11304A0090190910A01840F951F2034310510F041
S11304B02FE330E030930C0120930B018038910539
S11304C010F08FE790E090930A018093090101DE18
S11304D021D112D243E06091090180910B011BD21A
S11304E044E0609106018091040115D208E213E012
S11304F042E0F801628180810ED20C5F1F4FF3E06D
S11305000C331F07A9F7809123038F938091220353
S11305108F93FF92EF92DF92CF923BD5A60160E0DA
S113052081E08FD12FEF40E752E02150404050400E
S1130530E1F700C000000F900F900F900F900F9004
S11305400F907DCF00321105E0F041E050E02091A2
S11305500B0130910C01240F351FA501481B590BC9
S113056057FF90CF5195419551094B3051050CF0EF
S11305708DCF8091090190910A0197CF4FEF5FEFE2
S11305808ECF4FEF5FEFE3CF3195219531096DCFDA
S113059016B817B880E888B983EC86B9089593EC47
S11305A096B9806487B9369A349BFECF24B185B15D
S11305B016B890E0982F8827820F911D08952FEA8E
S11305C030E08091650080618093650088EC90E064
S11305D045E04A95F1F700000197D1F78091650055
S11305E08F7E8093650088EC90E045E04A95F1F7B2
S11305F000000197D1F72150310919F72AE531E0BC
S11306008091650080618093650085E690E045E017
S11306104A95F1F700000197D1F7809165008F7E2C
S11306208093650085E690E045E04A95F1F7000087
S11306300197D1F72150310919F70895982F96950C
S1130640969596958770A1F0813009F457C0823051
S113065009F458C0833009F453C0843009F454C0F9
S1130660853009F453C0863009F452C080E801C0D3
S113067081E020E8929FF0011124E15CFC4FE60F39
S1130680F11D2081822B808398549BBB1C981E9A59
S11306901F9A1D9A1D9885E38A95F1F7000060342E
S11306A0B0F06BBB1C981E9A1F981D9A1D9825E3E9
S11306B02A95F1F7000080818BBB1C9A1E9A1F9823
S11306C01D9A1D9885E38A95F1F700000895605CF2
S11306D06BBB1C981E981F9A1D9A1D9825E32A959A
S11306E0F1F7000080818BBB1C9A1E981F9A1D9AFB
S11306F01D9885E38A95F1F70000089582E0B9CF4B
S113070088E0B7CF84E0B5CF80E1B3CF80E2B1CF4A
S113071080E4AFCF98EB20E49BBB1C981E9A1F9AF1
S11307201D9A1D9835E33A95F1F700002BBB1C98F0
S11307301E9A1F9A1D9A1D9885E38A95F1F7000069
S113074080E41BBA1C9A1E9A1F9A1D9A1D9835E3C1
S11307503A95F1F700008150A1F79F5F903CE1F6D4
S113076008958FE38BBB1C981E9A1F9A1D9A1D989F
S113077085E38A95F1F7000080EC8BBB1C981E9AE8
S11307801F9A1D9A1D9885E38A95F1F7000088EB5E
S11307908BBB1C981E9A1F9A1D9A1D9885E38A95F7
S11307A0F1F7000080E48BBB1C981E9A1F9A1D9AD7
S11307B01D9885E38A95F1F70000089590E08097ED
S11307C0FC01EE0FFF1FEE0FFF1FE80FF91FE35FA1
S11307D0FE4F85E090913F079A30F0F490819BBBE7
S11307E01C9A1E981F9A1D9A1D9895E39A95F1F7E5
S11307F00000815031968111EDCF80913F071BBAE3
S11308001C9A8A30A8F01E9A1F981D9A1D9895E389
S11308109A95F1F70000089590819BBB1C9A1E9A4B
S11308201F981D9A1D9895E39A95F1F70000E1CF62
S11308301E981F9A1D9A1D9885E38A95F1F700006A
S113084008951F93CF93DF93EA0180933C03609351
S11308503F0788548BBB1C981E9A1F9A1D9A1D989B
S113086085E38A95F1F7000080913F078A30A0F173
S113087090E00A97982F990F890F880F805C8BBBA3
S11308801C981E9A1F981D9A1D9885E38A95F1F766
S1130890000088818823E1F090913F0710E40AC0AA
S11308A08DDF219690913F079F5F90933F0788814A
S11308B0882371F09A30A1F71BBB1C981E9A1F98CD
S11308C01D9A1D9885E38A95F1F700008881E8CF89
S11308D0DF91CF911F910895982F990F890F880F59
S11308E08C5B8BBB1C981E981F9A1D9A1D9885E3E0
S11308F08A95F1F70000CDCFEFE3F3E02FE337E083
S1130900CF0180589F4F1192E817F907E1F72E178E
S11309103F07B1F708953F924F925F926F927F9293
S11309208F929F92AF92BF92CF92DF92EF92FF92FB
S11309300F931F93CF93DF93E82E462E542EA62EAB
S1130940B12C842F90E06C01CC0CDD1CC80ED91E98
S1130950E601D7FC9BC0D595C795D595C7950027CB
S113096011270C1B1D0BE501C00FD11FD594C79493
S1130970D594C79445018C0C9D1C8C169D060CF4D3
S11309803AC0559C300111240EC0C7FD08C06C2F1D
S113099055DE8E2D8F19803410F4632D4FDE219691
S11309A08C169D0644F1CE018A199B09889F9001FB
S11309B0899F300D300D1124B301621B730B072E78
S11309C0000C880B990B60D1EFD120E030E040E0BF
S11309D05FE3C8D02BD1F62E3C2E8E2D8F0D8034A4
S11309E0A0F28E2D8F198034D0F6C7FFD6CF219672
S11309F08C169D06C4F6F12CE801CE0DDF1DCE0C3D
S1130A00DF1CCC16DD0684F1559C80011124CE0137
S1130A108E199F09889F9001899F300D300D1124F4
S1130A20B801621B730B072E000C880B990B2CD199
S1130A30BBD1BC2E2FE32C1798F020E030E040E02F
S1130A405FE390D0F3D0A62E642D6A0D67FD02C03B
S1130A508C2FF4DD642D6A1967FD02C08B2DEEDD49
S1130A602196CC16DD069CF6DF91CF911F910F9154
S1130A70FF90EF90DF90CF90BF90AF909F908F90BA
S1130A807F906F905F904F903F900895239663CF2F
S1130A90F8940ED006D01AD04FD07ADD62DE789466
S1130AA008958AE080936A001ABE83E089BF08959E
S1130AB01BBA8FEF8ABB88BB87BB12BA11BA13B8B3
S1130AC082B91092650080936400089515BC8AE190
S1130AD084BD83E085BD80E487BF08951F920F9293
S1130AE00FB60F9211242F933F938F939F938AE114
S1130AF084BD809126039091270301969093270348
S1130B00809326032091E8023091E902821793072B
S1130B1051F481E090E09093250380932403109294
S1130B202703109226039F918F913F912F910F904D
S1130B300FBE0F901F90189510929B0086E0809333
S1130B409D0088E980939A0087E690E0909341079E
S1130B5080934007109298008091400780939900F9
S1130B6008955058BB27AA270ED0E0C0D1D030F04A
S1130B70D6D020F031F49F3F11F41EF4C6C00EF419
S1130B80E095E7FBBCC0E92FE2D080F3BA17620717
S1130B9073078407950718F071F49EF5FAC00EF4F4
S1130BA0E0950B2EBA2FA02D0B01B90190010C0179
S1130BB0CA01A0011124FF27591B99F0593F50F491
S1130BC0503E68F11A16F040A22F232F342F4427E9
S1130BD0585FF3CF469537952795A795F0405395E1
S1130BE0C9F77EF41F16BA0B620B730B840BBAF0B1
S1130BF09150A1F0FF0FBB1F661F771F881FC2F71C
S1130C000EC0BA0F621F731F841F48F4879577952F
S1130C106795B795F7959E3F08F0B3CF9395880FE6
S1130C2008F09927EE0F97958795089598D088F046
S1130C309F5790F0B92F9927B751A0F0D1F0660FC4
S1130C40771F881F991F1AF0BA95C9F712C0B130DF
S1130C5081F09FD0B1E008959CC0672F782F88273A
S1130C60B85F39F0B93FCCF3869577956795B3951E
S1130C70D9F73EF490958095709561957F4F8F4F8D
S1130C809F4F0895E89409C097FB3EF49095809592
S1130C90709561957F4F8F4F9F4F9923A9F0F92F3E
S1130CA096E9BB279395F695879577956795B795BC
S1130CB0F111F8CFFAF4BB0F11F460FF1BC06F5FA2
S1130CC07F4F8F4F9F4F16C0882311F096E911C0B4
S1130CD0772321F09EE8872F762F05C0662371F0D5
S1130CE096E8862F70E060E02AF09A95660F771FE9
S1130CF0881FDAF7880F9695879597F9089597F9DD
S1130D009F6780E870E060E008959FEF80EC0895AD
S1130D1000240A94161617061806090608950024D6
S1130D200A9412161306140605060895092E039450
S1130D30000C11F4882352F0BB0F40F4BF2B11F4C4
S1130D4060FF04C06F5F7F4F8F4F9F4F089557FD23
S1130D509058440F551F59F05F3F71F04795880F25
S1130D6097FB991F61F09F3F79F0879508951216BC
S1130D7013061406551FF2CF4695F1DF08C0161668
S1130D8017061806991FF1CF869571056105089419
S1130D900895E894BB2766277727CB0197F9089530
S1130DA011F40EF4B2CF3EC0DADFD0F39923D9F3B5
S1130DB0CEF39F57550B87FF43D00024A0E640EAAB
S1130DC0900180585695979528F4805C660F771F9C
S1130DD0881F20F026173707480730F4621B730B6F
S1130DE0840B202931294A2BA69517940794202592
S1130DF031254A2758F7660F771F881F20F02617DA
S1130E003707480730F4620B730B840B200D311D38
S1130E10411DA09581F7B901842F9158880F9695AB
S1130E20879508959F3F31F0915020F487957795E9
S1130E306795B795880F911D9695879597F90895AD
S1130E4091505040660F771F881FD2F70895052EE2
S1130E5097FB16F400940FD057FD05D023D007FC60
S1130E6002D046F408C050954095309521953F4FE7
S1130E704F4F5F4F089590958095709561957F4F82
S1130E808F4F9F4F0895A29FB001B39FC001A39FAE
S1130E90700D811D1124911DB29F700D811D1124AF
S1130EA0911D0895A1E21A2EAA1BBB1BFD010DC0C2
S1130EB0AA1FBB1FEE1FFF1FA217B307E407F50706
S1130EC020F0A21BB30BE40BF50B661F771F881FE2
S1130ED0991F1A9469F760957095809590959B0178
S1130EE0AC01BD01CF0108958F929F92AF92BF9242
S1130EF0CF92DF92EF92FF92CF93DF93EC01688160
S1130F0079818A819B81611571058105910521F49F
S1130F1064E279ED8BE597E02DE133EF41E050E0B9
S1130F2096DF49015A019B01AC01A7EAB1E40CD355
S1130F306B017C01ACEEB4EFA501940111D3DC018B
S1130F40CB018C0D9D1DAE1DBF1DB7FF03C00197C6
S1130F50A109B04888839983AA83BB839F77DF91D3
S1130F60CF91FF90EF90DF90CF90BF90AF909F9084
S1130F708F900895B9CF80E091E0B6CFA0E0B0E0C3
S1130F808093000190930101A0930201B0930301A7
S1130F9008950F931F93CF93DF93CDB7DEB72E97AA
S1130FA00FB6F894DEBF0FBECDBF0D891E8986E053
S1130FB08C831A8309838FEF9FE79E838D83AE0111
S1130FC0475E5F4F6F89788DCE01019610D0EF8117
S1130FD0F885E00FF11F10822E960FB6F894DEBF4D
S1130FE00FBECDBFDF91CF911F910F9108952F9226
S1130FF03F924F925F926F927F928F929F92AF92A5
S1131000BF92CF92DF92EF92FF920F931F93CF93F1
S1131010DF93CDB7DEB72B970FB6F894DEBF0FBEC4
S1131020CDBF6C017B018A01FC011782168283818A
S113103081FFBFC1CE0101963C01F6019381F70106
S113104093FD859193FF81917F01882309F4ADC1BC
S1131050853239F493FD859193FF81917F01853227
S113106021F4B60190E0D6D1E8CF912C212C312C7B
S1131070FFE1F315D8F08B3279F038F4803279F04F
S11310808332A1F4232D20611DC08D3261F08033A1
S113109069F4232D216016C0832D8260382EE32D40
S11310A0E4603E2E2AC0F32DF8601DC037FC2DC02D
S11310B020ED280F2A3040F08E32B9F436FC75C189
S11310C0232D2064322E19C036FE06C08AE0989E75
S11310D0200D1124922E11C0EAE02E9E200D112421
S11310E0222EF32DF0623F2E08C08C3621F4832D7E
S11310F08068382E02C0883641F4F70193FD85914B
S113110093FF81917F018111B3CF982F9F7D9554D7
S1131110933028F40C5F1F4F9FE399830DC08336EF
S113112031F0833771F0833509F055C020C0F801E0
S1131130808189830E5F1F4F88248394912C5301EF
S113114012C02801F2E04F0E511CF801A080B180BA
S113115036FE03C0692D70E002C06FEF7FEFC5015A
S11311604ED14C018201F32DFF773F2E15C028018B
S113117022E0420E511CF801A080B18036FE03C06B
S1131180692D70E002C06FEF7FEFC5012DD14C01D6
S1131190F32DF0683F2E820133FC19C0822D90E0BC
S11311A088169906A0F4B60180E290E033D12A941F
S11311B0F5CFF50137FC859137FE81915F01B601CA
S11311C090E028D121102A9421E0821A91088114F8
S11311D0910479F7E1C0843611F0893639F5F801C4
S11311E037FE07C060817181828193810C5F1F4F3C
S11311F008C060817181072E000C880B990B0E5F6B
S11312001F4FF32DFF763F2E97FF09C090958095D1
S1131210709561957F4F8F4F9F4FF0683F2E2AE066
S113122030E0A30133D1882E861844C0853731F4C9
S1131230232D2F7EB22E2AE030E025C0932D997FF6
S1131240B92E8F36C1F018F4883579F0AEC08037E6
S113125019F0883721F0A9C0E92FE061BE2EB4FE51
S11312600DC0FB2DF460BF2E09C034FE0AC0292F27
S11312702660B22E06C028E030E005C020E130E050
S113128002C020E132E0F801B7FE07C0608171813D
S1131290828193810C5F1F4F06C06081718180E061
S11312A090E00E5F1F4FA301F1D0882E8618FB2D0E
S11312B0FF773F2E36FE0DC0232D2E7FA22E8914DC
S11312C058F434FE0BC032FC09C0832D8E7EA82E48
S11312D005C0B82CA32C03C0B82C01C0B92CA4FEA3
S11312E00FC0FE01E80DF11D8081803321F49A2D99
S11312F0997EA92E09C0A2FE06C0B394B39404C07B
S11313008A2D867809F0B394A3FC10C0A0FE06C011
S1131310B21480F4280C922C9B180DC0B21458F40B
S1131320B60180E290E076D0B394F8CFB21418F40A
S11313302B1802C0982C212CA4FE0FC0B60180E308
S113134090E068D0A2FE16C0A1FC03C088E790E03C
S113135002C088E590E0B6010CC08A2D867851F071
S1131360A1FE02C08BE201C080E2A7FC8DE2B601BF
S113137090E050D0891430F4B60180E390E04AD074
S11313809A94F8CF8A94F301E80DF11D8081B60197
S113139090E040D08110F6CF222009F44ECEB60161
S11313A080E290E037D02A94F7CFF60186819781C6
S11313B002C08FEF9FEF2B960FB6F894DEBF0FBEDF
S11313C0CDBFDF91CF911F910F91FF90EF90DF90F0
S11313D0CF90BF90AF909F908F907F906F905F90D1
S11313E04F903F902F900895FC01059061507040FC
S11313F00110D8F7809590958E0F9F1F0895FC01DA
S11314006150704001900110D8F7809590958E0F2F
S11314109F1F08950F931F93CF93DF93FB012381A5
S113142021FD03C08FEF9FEF2CC022FF16C0468121
S11314305781248135814217530744F4A081B18137
S11314409D012F5F3F4F318320838C932681378109
S11314502F5F3F4F3783268314C08B01EC01FB01C0
S11314600084F185E02D0995892BE1F6D8011696C3
S11314708D919C911797019617969C938E9316972E
S1131480CE01DF91CF911F910F910895FA01AA2700
S1131490283051F1203181F1E8946F936E7F6E5FB3
S11314A07F4F8F4F9F4FAF4FB1E03ED0B4E03CD061
S11314B0670F781F891F9A1FA11D680F791F8A1F44
S11314C0911DA11D6A0F711D811D911DA11D20D0AB
S11314D009F468943F912AE0269F11243019305D65
S11314E03193DEF6CF010895462F4770405D419356
S11314F0B3E00FD0C9F7F6CF462F4F70405D4A33A3
S113150018F0495D31FD4052419302D0A9F7EACF6A
S1131510B4E0A6959795879577956795BA95C9F799
S113152000976105710508959B01AC010A2E06948C
S11315305795479537952795BA95C9F7620F731F45
S1131540841F951FA01D08959EDCA59F900DB49F38
S1131550900DA49F800D911D11240895B7FFF4CF21
S10F1560F3DF821B930B0895F894FFCF77
S113156C010000001E006400033F001F0000000087
S113157C000000004F00000007000700147F147FD8
S113158C14242A7F2A1223130864623649552250E4
S113159C0005030000001C2241000041221C001421
S11315AC083E081408083E080800503000000808DB
S11315BC080808006060000020100804023E51492D
S11315CC453E00427F400042615149462141454B12
S11315DC311814127F1027454545393C4A49493086
S11315EC01710905033649494936064949291E0042
S11315FC363600000056360000081422410014143C
S113160C14141400412214080201510906324979B8
S113161C413E7E1111117E7F494949363E4141417B
S113162C227F4141221C7F494949417F0909090113
S113163C3E4149497A7F0808087F00417F410020D8
S113164C40413F017F081422417F404040407F02CB
S113165C0C027F7F0408107F3E4141413E7F090903
S113166C09063E4151215E7F0919294626494949FB
S113167C3201017F01013F4040403F1F2040201FA9
S113168C3F4038403F63140814630708700807612F
S113169C51494543007F4141000204081020004198
S11316AC417F00040201020440404040400001021A
S11316BC040020545454787F4844443838444444F7
S11316CC20384444487F3854545418087E09010285
S11316DC0C5252523E7F0804047800047D00002012
S11316EC40443D007F1028440000417F40007C04AE
S11316FC18047C7C0804047838444444387C14145E
S113170C1408081414187C7C080404084854545411
S113171C20043F4440203C4040207C1C2040201CA2
S113172C3C4030403C44281028440C5050503C441D
S113173C64544C440008364100000077000000411A
S113174C3608000804081008F40153636F72653AF4
S113175C2025640047616D65204F76657221004633
S113176C696E616C2053636F72653A200055736522
S113177C206A6F79737469636B20746F206D6F7654
S105178C6500F2
S9030000FC
